{
    "abi": [
        {
            "type": "function",
            "name": "addToBlockChain",
            "inputs": [
                {
                    "name": "receiver",
                    "type": "address",
                    "internalType": "address payable"
                },
                {
                    "name": "amount",
                    "type": "uint256",
                    "internalType": "uint256"
                },
                {
                    "name": "message",
                    "type": "string",
                    "internalType": "string"
                },
                {
                    "name": "keyword",
                    "type": "string",
                    "internalType": "string"
                }
            ],
            "outputs": [],
            "stateMutability": "nonpayable"
        },
        {
            "type": "function",
            "name": "getAllTransactions",
            "inputs": [],
            "outputs": [
                {
                    "name": "",
                    "type": "tuple[]",
                    "internalType": "struct Transactions.TransferStruct[]",
                    "components": [
                        {
                            "name": "sender",
                            "type": "address",
                            "internalType": "address"
                        },
                        {
                            "name": "receiver",
                            "type": "address",
                            "internalType": "address"
                        },
                        {
                            "name": "amount",
                            "type": "uint256",
                            "internalType": "uint256"
                        },
                        {
                            "name": "message",
                            "type": "string",
                            "internalType": "string"
                        },
                        {
                            "name": "timestamp",
                            "type": "uint256",
                            "internalType": "uint256"
                        },
                        {
                            "name": "keyword",
                            "type": "string",
                            "internalType": "string"
                        }
                    ]
                }
            ],
            "stateMutability": "view"
        },
        {
            "type": "function",
            "name": "getTransactionCount",
            "inputs": [],
            "outputs": [
                {
                    "name": "",
                    "type": "uint256",
                    "internalType": "uint256"
                }
            ],
            "stateMutability": "view"
        },
        {
            "type": "event",
            "name": "Transfer",
            "inputs": [
                {
                    "name": "from",
                    "type": "address",
                    "indexed": false,
                    "internalType": "address"
                },
                {
                    "name": "receiver",
                    "type": "address",
                    "indexed": false,
                    "internalType": "address"
                },
                {
                    "name": "amount",
                    "type": "uint256",
                    "indexed": false,
                    "internalType": "uint256"
                },
                {
                    "name": "message",
                    "type": "string",
                    "indexed": false,
                    "internalType": "string"
                },
                {
                    "name": "timestamp",
                    "type": "uint256",
                    "indexed": false,
                    "internalType": "uint256"
                },
                {
                    "name": "keyword",
                    "type": "string",
                    "indexed": false,
                    "internalType": "string"
                }
            ],
            "anonymous": false
        }
    ],
    "bytecode": {
        "object": "0x6080604052348015600e575f5ffd5b50610da78061001c5f395ff3fe608060405234801561000f575f5ffd5b506004361061003f575f3560e01c806327506f53146100435780632e7700f014610061578063b2da09601461007f575b5f5ffd5b61004b61009b565b6040516100589190610695565b60405180910390f35b6100696102d4565b60405161007691906106c4565b60405180910390f35b6100996004803603810190610094919061087f565b6102dc565b005b60606001805480602002602001604051908101604052809291908181526020015f905b828210156102cb578382905f5260205f2090600602016040518060c00160405290815f82015f9054906101000a900473ffffffffffffffffffffffffffffffffffffffff1673ffffffffffffffffffffffffffffffffffffffff1673ffffffffffffffffffffffffffffffffffffffff168152602001600182015f9054906101000a900473ffffffffffffffffffffffffffffffffffffffff1673ffffffffffffffffffffffffffffffffffffffff1673ffffffffffffffffffffffffffffffffffffffff168152602001600282015481526020016003820180546101a290610948565b80601f01602080910402602001604051908101604052809291908181526020018280546101ce90610948565b80156102195780601f106101f057610100808354040283529160200191610219565b820191905f5260205f20905b8154815290600101906020018083116101fc57829003601f168201915b505050505081526020016004820154815260200160058201805461023c90610948565b80601f016020809104026020016040519081016040528092919081815260200182805461026890610948565b80156102b35780601f1061028a576101008083540402835291602001916102b3565b820191905f5260205f20905b81548152906001019060200180831161029657829003601f168201915b505050505081525050815260200190600101906100be565b50505050905090565b5f5f54905090565b5f5f8154809291906102ed906109a5565b919050555060016040518060c001604052803373ffffffffffffffffffffffffffffffffffffffff1681526020018673ffffffffffffffffffffffffffffffffffffffff16815260200185815260200184815260200142815260200183815250908060018154018082558091505060019003905f5260205f2090600602015f909190919091505f820151815f015f6101000a81548173ffffffffffffffffffffffffffffffffffffffff021916908373ffffffffffffffffffffffffffffffffffffffff1602179055506020820151816001015f6101000a81548173ffffffffffffffffffffffffffffffffffffffff021916908373ffffffffffffffffffffffffffffffffffffffff16021790555060408201518160020155606082015181600301908161041c9190610b8c565b506080820151816004015560a082015181600501908161043c9190610b8c565b5050507f416cfa4330a4565f45c2fd2dd4826a83a37443aba2ce6f79477c7355afac35fa33858585428660405161047896959493929190610d04565b60405180910390a150505050565b5f81519050919050565b5f82825260208201905092915050565b5f819050602082019050919050565b5f73ffffffffffffffffffffffffffffffffffffffff82169050919050565b5f6104d8826104af565b9050919050565b6104e8816104ce565b82525050565b5f819050919050565b610500816104ee565b82525050565b5f81519050919050565b5f82825260208201905092915050565b8281835e5f83830152505050565b5f601f19601f8301169050919050565b5f61054882610506565b6105528185610510565b9350610562818560208601610520565b61056b8161052e565b840191505092915050565b5f60c083015f83015161058b5f8601826104df565b50602083015161059e60208601826104df565b5060408301516105b160408601826104f7565b50606083015184820360608601526105c9828261053e565b91505060808301516105de60808601826104f7565b5060a083015184820360a08601526105f6828261053e565b9150508091505092915050565b5f61060e8383610576565b905092915050565b5f602082019050919050565b5f61062c82610486565b6106368185610490565b935083602082028501610648856104a0565b805f5b8581101561068357848403895281516106648582610603565b945061066f83610616565b925060208a0199505060018101905061064b565b50829750879550505050505092915050565b5f6020820190508181035f8301526106ad8184610622565b905092915050565b6106be816104ee565b82525050565b5f6020820190506106d75f8301846106b5565b92915050565b5f604051905090565b5f5ffd5b5f5ffd5b5f6106f8826104af565b9050919050565b610708816106ee565b8114610712575f5ffd5b50565b5f81359050610723816106ff565b92915050565b610732816104ee565b811461073c575f5ffd5b50565b5f8135905061074d81610729565b92915050565b5f5ffd5b5f5ffd5b7f4e487b71000000000000000000000000000000000000000000000000000000005f52604160045260245ffd5b6107918261052e565b810181811067ffffffffffffffff821117156107b0576107af61075b565b5b80604052505050565b5f6107c26106dd565b90506107ce8282610788565b919050565b5f67ffffffffffffffff8211156107ed576107ec61075b565b5b6107f68261052e565b9050602081019050919050565b828183375f83830152505050565b5f61082361081e846107d3565b6107b9565b90508281526020810184848401111561083f5761083e610757565b5b61084a848285610803565b509392505050565b5f82601f83011261086657610865610753565b5b8135610876848260208601610811565b91505092915050565b5f5f5f5f60808587031215610897576108966106e6565b5b5f6108a487828801610715565b94505060206108b58782880161073f565b935050604085013567ffffffffffffffff8111156108d6576108d56106ea565b5b6108e287828801610852565b925050606085013567ffffffffffffffff811115610903576109026106ea565b5b61090f87828801610852565b91505092959194509250565b7f4e487b71000000000000000000000000000000000000000000000000000000005f52602260045260245ffd5b5f600282049050600182168061095f57607f821691505b6020821081036109725761097161091b565b5b50919050565b7f4e487b71000000000000000000000000000000000000000000000000000000005f52601160045260245ffd5b5f6109af826104ee565b91507fffffffffffffffffffffffffffffffffffffffffffffffffffffffffffffffff82036109e1576109e0610978565b5b600182019050919050565b5f819050815f5260205f209050919050565b5f6020601f8301049050919050565b5f82821b905092915050565b5f60088302610a487fffffffffffffffffffffffffffffffffffffffffffffffffffffffffffffffff82610a0d565b610a528683610a0d565b95508019841693508086168417925050509392505050565b5f819050919050565b5f610a8d610a88610a83846104ee565b610a6a565b6104ee565b9050919050565b5f819050919050565b610aa683610a73565b610aba610ab282610a94565b848454610a19565b825550505050565b5f5f905090565b610ad1610ac2565b610adc818484610a9d565b505050565b5b81811015610aff57610af45f82610ac9565b600181019050610ae2565b5050565b601f821115610b4457610b15816109ec565b610b1e846109fe565b81016020851015610b2d578190505b610b41610b39856109fe565b830182610ae1565b50505b505050565b5f82821c905092915050565b5f610b645f1984600802610b49565b1980831691505092915050565b5f610b7c8383610b55565b9150826002028217905092915050565b610b9582610506565b67ffffffffffffffff811115610bae57610bad61075b565b5b610bb88254610948565b610bc3828285610b03565b5f60209050601f831160018114610bf4575f8415610be2578287015190505b610bec8582610b71565b865550610c53565b601f198416610c02866109ec565b5f5b82811015610c2957848901518255600182019150602085019450602081019050610c04565b86831015610c465784890151610c42601f891682610b55565b8355505b6001600288020188555050505b505050505050565b610c64816104ce565b82525050565b5f610c84610c7f610c7a846104af565b610a6a565b6104af565b9050919050565b5f610c9582610c6a565b9050919050565b5f610ca682610c8b565b9050919050565b610cb681610c9c565b82525050565b5f82825260208201905092915050565b5f610cd682610506565b610ce08185610cbc565b9350610cf0818560208601610520565b610cf98161052e565b840191505092915050565b5f60c082019050610d175f830189610c5b565b610d246020830188610cad565b610d3160408301876106b5565b8181036060830152610d438186610ccc565b9050610d5260808301856106b5565b81810360a0830152610d648184610ccc565b905097965050505050505056fea2646970667358221220b343672400f7670ea7d091028744f2718970564137171bec3dc6a598929633df64736f6c634300081c0033",
        "linkReferences": {}
    },
    "methodIdentifiers": {
        "addToBlockChain(address,uint256,string,string)": "b2da0960",
        "getAllTransactions()": "27506f53",
        "getTransactionCount()": "2e7700f0"
    },
    "id": 15
}